{
  "_format": "hh-sol-artifact-1",
  "contractName": "Overtime",
  "sourceName": "contracts/Overtime.sol",
  "abi": [
    {
      "inputs": [],
      "stateMutability": "nonpayable",
      "type": "constructor"
    },
    {
      "inputs": [
        {
          "internalType": "uint256",
          "name": "timeRequired",
          "type": "uint256"
        },
        {
          "internalType": "uint256",
          "name": "expertiseRequired",
          "type": "uint256"
        },
        {
          "internalType": "uint256[]",
          "name": "dependencies",
          "type": "uint256[]"
        },
        {
          "internalType": "uint256",
          "name": "hourlyWage",
          "type": "uint256"
        },
        {
          "internalType": "uint256",
          "name": "deadline",
          "type": "uint256"
        },
        {
          "internalType": "bool",
          "name": "divisible",
          "type": "bool"
        }
      ],
      "name": "addTask",
      "outputs": [],
      "stateMutability": "nonpayable",
      "type": "function"
    },
    {
      "inputs": [],
      "name": "checkStatusTask",
      "outputs": [],
      "stateMutability": "nonpayable",
      "type": "function"
    },
    {
      "inputs": [
        {
          "internalType": "address",
          "name": "_worker",
          "type": "address"
        }
      ],
      "name": "checkWallet",
      "outputs": [
        {
          "internalType": "bool",
          "name": "",
          "type": "bool"
        }
      ],
      "stateMutability": "view",
      "type": "function"
    },
    {
      "inputs": [
        {
          "internalType": "uint256",
          "name": "taskId",
          "type": "uint256"
        },
        {
          "internalType": "address",
          "name": "_worker",
          "type": "address"
        }
      ],
      "name": "completeTask",
      "outputs": [],
      "stateMutability": "payable",
      "type": "function"
    },
    {
      "inputs": [
        {
          "internalType": "uint256",
          "name": "",
          "type": "uint256"
        }
      ],
      "name": "doneTask",
      "outputs": [
        {
          "internalType": "bool",
          "name": "",
          "type": "bool"
        }
      ],
      "stateMutability": "view",
      "type": "function"
    },
    {
      "inputs": [
        {
          "internalType": "uint256",
          "name": "a",
          "type": "uint256"
        },
        {
          "internalType": "address",
          "name": "b",
          "type": "address"
        }
      ],
      "name": "g",
      "outputs": [
        {
          "internalType": "uint256",
          "name": "",
          "type": "uint256"
        }
      ],
      "stateMutability": "view",
      "type": "function"
    },
    {
      "inputs": [],
      "name": "getAllocation",
      "outputs": [
        {
          "internalType": "address[][]",
          "name": "",
          "type": "address[][]"
        }
      ],
      "stateMutability": "view",
      "type": "function"
    },
    {
      "inputs": [],
      "name": "getStatusTask",
      "outputs": [
        {
          "internalType": "bool[]",
          "name": "",
          "type": "bool[]"
        }
      ],
      "stateMutability": "view",
      "type": "function"
    },
    {
      "inputs": [],
      "name": "getTaskList",
      "outputs": [
        {
          "components": [
            {
              "internalType": "uint256",
              "name": "requiredTime",
              "type": "uint256"
            },
            {
              "internalType": "uint256",
              "name": "expertiseRequired",
              "type": "uint256"
            },
            {
              "internalType": "uint256[]",
              "name": "dependencies",
              "type": "uint256[]"
            },
            {
              "internalType": "uint256",
              "name": "hourlyWage",
              "type": "uint256"
            },
            {
              "internalType": "uint256",
              "name": "deadline",
              "type": "uint256"
            },
            {
              "internalType": "bool",
              "name": "divisible",
              "type": "bool"
            },
            {
              "internalType": "bool",
              "name": "allocated",
              "type": "bool"
            },
            {
              "internalType": "uint256",
              "name": "workersLeft",
              "type": "uint256"
            }
          ],
          "internalType": "struct Overtime.Task[]",
          "name": "",
          "type": "tuple[]"
        }
      ],
      "stateMutability": "view",
      "type": "function"
    },
    {
      "inputs": [],
      "name": "getTotalHours",
      "outputs": [
        {
          "internalType": "uint256",
          "name": "",
          "type": "uint256"
        }
      ],
      "stateMutability": "view",
      "type": "function"
    },
    {
      "inputs": [],
      "name": "getTotalPayments",
      "outputs": [
        {
          "internalType": "uint256",
          "name": "",
          "type": "uint256"
        }
      ],
      "stateMutability": "view",
      "type": "function"
    },
    {
      "inputs": [],
      "name": "getTotalTasks",
      "outputs": [
        {
          "internalType": "uint256",
          "name": "",
          "type": "uint256"
        }
      ],
      "stateMutability": "view",
      "type": "function"
    },
    {
      "inputs": [
        {
          "internalType": "uint256",
          "name": "_hours",
          "type": "uint256"
        },
        {
          "internalType": "uint256",
          "name": "_expertise",
          "type": "uint256"
        },
        {
          "internalType": "uint256",
          "name": "_minWage",
          "type": "uint256"
        },
        {
          "internalType": "address",
          "name": "_wallet",
          "type": "address"
        }
      ],
      "name": "registerWorker",
      "outputs": [],
      "stateMutability": "nonpayable",
      "type": "function"
    },
    {
      "inputs": [
        {
          "internalType": "uint256",
          "name": "",
          "type": "uint256"
        }
      ],
      "name": "tasks",
      "outputs": [
        {
          "internalType": "uint256",
          "name": "requiredTime",
          "type": "uint256"
        },
        {
          "internalType": "uint256",
          "name": "expertiseRequired",
          "type": "uint256"
        },
        {
          "internalType": "uint256",
          "name": "hourlyWage",
          "type": "uint256"
        },
        {
          "internalType": "uint256",
          "name": "deadline",
          "type": "uint256"
        },
        {
          "internalType": "bool",
          "name": "divisible",
          "type": "bool"
        },
        {
          "internalType": "bool",
          "name": "allocated",
          "type": "bool"
        },
        {
          "internalType": "uint256",
          "name": "workersLeft",
          "type": "uint256"
        }
      ],
      "stateMutability": "view",
      "type": "function"
    },
    {
      "inputs": [
        {
          "internalType": "address",
          "name": "",
          "type": "address"
        }
      ],
      "name": "workers",
      "outputs": [
        {
          "internalType": "uint256",
          "name": "hoursAvailable",
          "type": "uint256"
        },
        {
          "internalType": "uint256",
          "name": "expertise",
          "type": "uint256"
        },
        {
          "internalType": "uint256",
          "name": "minWage",
          "type": "uint256"
        },
        {
          "internalType": "address",
          "name": "wallet",
          "type": "address"
        },
        {
          "internalType": "bool",
          "name": "registered",
          "type": "bool"
        }
      ],
      "stateMutability": "view",
      "type": "function"
    }
  ],
  "bytecode": "0x608060405260036009556a084595161401484a000000600c55348015602357600080fd5b50336000806101000a81548173ffffffffffffffffffffffffffffffffffffffff021916908373ffffffffffffffffffffffffffffffffffffffff16021790555060006007819055506000600881905550613420806100836000396000f3fe6080604052600436106100e85760003560e01c8063708f29a61161008a5780638d977672116100595780638d977672146102c9578063a4394e361461030c578063c6d626a814610349578063f75b1db614610372576100e8565b8063708f29a61461021f5780637e5937b41461024a578063827b93d614610275578063846905a9146102a0576100e8565b80633c93b905116100c65780633c93b9051461015f5780634048a2571461018a5780635e6f8337146101cb5780636a74b1ce14610208576100e8565b80630c9e1e8e146100ed57806329e517f41461011857806338940fae14610134575b600080fd5b3480156100f957600080fd5b506101026103af565b60405161010f919061278e565b60405180910390f35b610132600480360381019061012d919061281c565b610484565b005b34801561014057600080fd5b50610149610a2a565b6040516101569190612aa7565b60405180910390f35b34801561016b57600080fd5b50610174610b4a565b6040516101819190612ad8565b60405180910390f35b34801561019657600080fd5b506101b160048036038101906101ac9190612af3565b610b57565b6040516101c2959493929190612b3e565b60405180910390f35b3480156101d757600080fd5b506101f260048036038101906101ed9190612b91565b610bba565b6040516101ff9190612bbe565b60405180910390f35b34801561021457600080fd5b5061021d610bee565b005b34801561022b57600080fd5b50610234610daa565b6040516102419190612ad8565b60405180910390f35b34801561025657600080fd5b5061025f610db4565b60405161026c9190612ad8565b60405180910390f35b34801561028157600080fd5b5061028a610dbe565b6040516102979190612c88565b60405180910390f35b3480156102ac57600080fd5b506102c760048036038101906102c29190612caa565b610e3b565b005b3480156102d557600080fd5b506102f060048036038101906102eb9190612b91565b611281565b6040516103039796959493929190612d11565b60405180910390f35b34801561031857600080fd5b50610333600480360381019061032e919061281c565b6112ed565b6040516103409190612ad8565b60405180910390f35b34801561035557600080fd5b50610370600480360381019061036b9190612e11565b611348565b005b34801561037e57600080fd5b5061039960048036038101906103949190612af3565b6115d0565b6040516103a69190612bbe565b60405180910390f35b60606005805480602002602001604051908101604052809291908181526020016000905b8282101561047b5783829060005260206000200180548060200260200160405190810160405280929190818152602001828054801561046757602002820191906000526020600020905b8160009054906101000a900473ffffffffffffffffffffffffffffffffffffffff1673ffffffffffffffffffffffffffffffffffffffff168152602001906001019080831161041d575b5050505050815260200190600101906103d3565b50505050905090565b60008054906101000a900473ffffffffffffffffffffffffffffffffffffffff1673ffffffffffffffffffffffffffffffffffffffff163373ffffffffffffffffffffffffffffffffffffffff1614610512576040517f08c379a000000000000000000000000000000000000000000000000000000000815260040161050990612f43565b60405180910390fd5b60006004600084815260200190815260200160002060008373ffffffffffffffffffffffffffffffffffffffff1673ffffffffffffffffffffffffffffffffffffffff16815260200190815260200160002054036105a5576040517f08c379a000000000000000000000000000000000000000000000000000000000815260040161059c90612faf565b60405180910390fd5b600c546004600084815260200190815260200160002060008373ffffffffffffffffffffffffffffffffffffffff1673ffffffffffffffffffffffffffffffffffffffff1681526020019081526020016000205410610639576040517f08c379a000000000000000000000000000000000000000000000000000000000815260040161063090613041565b60405180910390fd5b633b9aca006006838154811061065257610651613061565b5b9060005260206000209060070201600301546004600085815260200190815260200160002060008473ffffffffffffffffffffffffffffffffffffffff1673ffffffffffffffffffffffffffffffffffffffff168152602001908152602001600020546106bf91906130bf565b6106c99190613130565b34101561070b576040517f08c379a0000000000000000000000000000000000000000000000000000000008152600401610702906131ad565b60405180910390fd5b6006828154811061071f5761071e613061565b5b906000526020600020906007020160040154421115610773576040517f08c379a000000000000000000000000000000000000000000000000000000000815260040161076a90613219565b60405180910390fd5b8073ffffffffffffffffffffffffffffffffffffffff166108fc633b9aca00600685815481106107a6576107a5613061565b5b9060005260206000209060070201600301546004600087815260200190815260200160002060008673ffffffffffffffffffffffffffffffffffffffff1673ffffffffffffffffffffffffffffffffffffffff1681526020019081526020016000205461081391906130bf565b61081d9190613130565b9081150290604051600060405180830381858888f19350505050158015610848573d6000803e3d6000fd5b506006828154811061085d5761085c613061565b5b9060005260206000209060070201600301546004600084815260200190815260200160002060008373ffffffffffffffffffffffffffffffffffffffff1673ffffffffffffffffffffffffffffffffffffffff168152602001908152602001600020546108ca91906130bf565b600760008282546108db9190613239565b925050819055506004600083815260200190815260200160002060008273ffffffffffffffffffffffffffffffffffffffff1673ffffffffffffffffffffffffffffffffffffffff16815260200190815260200160002054600860008282546109449190613239565b9250508190555060016006838154811061096157610960613061565b5b90600052602060002090600702016006016000828254610981919061326d565b925050819055503373ffffffffffffffffffffffffffffffffffffffff166108fc349081150290604051600060405180830381858888f193505050501580156109ce573d6000803e3d6000fd5b50600c546004600084815260200190815260200160002060008373ffffffffffffffffffffffffffffffffffffffff1673ffffffffffffffffffffffffffffffffffffffff168152602001908152602001600020819055505050565b60606006805480602002602001604051908101604052809291908181526020016000905b82821015610b41578382906000526020600020906007020160405180610100016040529081600082015481526020016001820154815260200160028201805480602002602001604051908101604052809291908181526020018280548015610ad557602002820191906000526020600020905b815481526020019060010190808311610ac1575b5050505050815260200160038201548152602001600482015481526020016005820160009054906101000a900460ff161515151581526020016005820160019054906101000a900460ff1615151515815260200160068201548152505081526020019060010190610a4e565b50505050905090565b6000600680549050905090565b60036020528060005260406000206000915090508060000154908060010154908060020154908060030160009054906101000a900473ffffffffffffffffffffffffffffffffffffffff16908060030160149054906101000a900460ff16905085565b600b8181548110610bca57600080fd5b9060005260206000209060209182820401919006915054906101000a900460ff1681565b60005b600680549050811015610da75760068181548110610c1257610c11613061565b5b906000526020600020906007020160050160019054906101000a900460ff16610c3f57610c3e816115f3565b5b600b80549050811015610cf25760068181548110610c6057610c5f613061565b5b906000526020600020906007020160050160019054906101000a900460ff168015610cb05750600060068281548110610c9c57610c9b613061565b5b906000526020600020906007020160060154145b600b8281548110610cc457610cc3613061565b5b90600052602060002090602091828204019190066101000a81548160ff021916908315150217905550610d9a565b600b60068281548110610d0857610d07613061565b5b906000526020600020906007020160050160019054906101000a900460ff168015610d585750600060068381548110610d4457610d43613061565b5b906000526020600020906007020160060154145b90806001815401808255809150506001900390600052602060002090602091828204019190069091909190916101000a81548160ff0219169083151502179055505b8080600101915050610bf1565b50565b6000600754905090565b6000600854905090565b6060600b805480602002602001604051908101604052809291908181526020018280548015610e3157602002820191906000526020600020906000905b82829054906101000a900460ff16151581526020019060010190602082600001049283019260010382029150808411610dfb5790505b5050505050905090565b600360008273ffffffffffffffffffffffffffffffffffffffff1673ffffffffffffffffffffffffffffffffffffffff16815260200190815260200160002060030160149054906101000a900460ff1615610ecb576040517f08c379a0000000000000000000000000000000000000000000000000000000008152600401610ec2906132ed565b60405180910390fd5b6040518060a001604052808581526020018481526020018381526020018273ffffffffffffffffffffffffffffffffffffffff16815260200160011515815250600360008373ffffffffffffffffffffffffffffffffffffffff1673ffffffffffffffffffffffffffffffffffffffff16815260200190815260200160002060008201518160000155602082015181600101556040820151816002015560608201518160030160006101000a81548173ffffffffffffffffffffffffffffffffffffffff021916908373ffffffffffffffffffffffffffffffffffffffff16021790555060808201518160030160146101000a81548160ff0219169083151502179055509050506000600180549050905060005b60018054905081101561102657836001828154811061100157611000613061565b5b90600052602060002001541061101957809150611026565b8080600101915050610fdf565b506001805490508114806110585750826001828154811061104a57611049613061565b5b906000526020600020015414155b156111f5576001839080600181540180825580915050600190039060005260206000200160009091909190915055600060018080549050611099919061326d565b90505b818111156111f357600180826110b2919061326d565b815481106110c3576110c2613061565b5b9060005260206000200154600182815481106110e2576110e1613061565b5b9060005260206000200160008282546110fb9190613239565b9250508190555060018082611110919061326d565b8154811061112157611120613061565b5b9060005260206000200154600182815481106111405761113f613061565b5b9060005260206000200154611155919061326d565b60018083611163919061326d565b8154811061117457611173613061565b5b906000526020600020018190555060018082611190919061326d565b815481106111a1576111a0613061565b5b9060005260206000200154600182815481106111c0576111bf613061565b5b9060005260206000200160008282546111d9919061326d565b9250508190555080806111eb9061330d565b91505061109c565b505b600260008481526020019081526020016000206000858152602001908152602001600020829080600181540180825580915050600190039060005260206000200160009091909190916101000a81548173ffffffffffffffffffffffffffffffffffffffff021916908373ffffffffffffffffffffffffffffffffffffffff1602179055505050505050565b6006818154811061129157600080fd5b90600052602060002090600702016000915090508060000154908060010154908060030154908060040154908060050160009054906101000a900460ff16908060050160019054906101000a900460ff16908060060154905087565b60006004600084815260200190815260200160002060008373ffffffffffffffffffffffffffffffffffffffff1673ffffffffffffffffffffffffffffffffffffffff16815260200190815260200160002054905092915050565b60008054906101000a900473ffffffffffffffffffffffffffffffffffffffff1673ffffffffffffffffffffffffffffffffffffffff163373ffffffffffffffffffffffffffffffffffffffff16146113d6576040517f08c379a00000000000000000000000000000000000000000000000000000000081526004016113cd90612f43565b60405180910390fd5b856001111580156113e75750600486105b80156113f257504282115b611431576040517f08c379a000000000000000000000000000000000000000000000000000000000815260040161142890613382565b60405180910390fd5b6006604051806101000160405280898152602001888152602001878780806020026020016040519081016040528093929190818152602001838360200280828437600081840152601f19601f8201169050808301925050505050505081526020018581526020018481526020018315158152602001600015158152602001600081525090806001815401808255809150506001900390600052602060002090600702016000909190919091506000820151816000015560208201518160010155604082015181600201908051906020019061150d9291906124c7565b50606082015181600301556080820151816004015560a08201518160050160006101000a81548160ff02191690831515021790555060c08201518160050160016101000a81548160ff02191690831515021790555060e08201518160060155505060606005819080600181540180825580915050600190039060005260206000200160009091909190915090805190602001906115ab929190612514565b506115c660016006805490506115c1919061326d565b6115f3565b5050505050505050565b6000808273ffffffffffffffffffffffffffffffffffffffff1631119050919050565b600060018054905003156123f857600160008154811061161657611615613061565b5b90600052602060002001546006828154811061163557611634613061565b5b906000526020600020906007020160030154106123f857600061167c6006838154811061166557611664613061565b5b9060005260206000209060070201600301546123fb565b9050600a600061168c919061259e565b600682815481106116a05761169f613061565b5b906000526020600020906007020160050160009054906101000a900460ff1615611fbd5760005b60008210611fb7576000600684815481106116e5576116e4613061565b5b90600052602060002090600702016001015490505b6009548111611f935760005b600260006001868154811061171e5761171d613061565b5b90600052602060002001548152602001908152602001600020600083815260200190815260200160002080549050811015611f7f576000600260006001878154811061176d5761176c613061565b5b90600052602060002001548152602001908152602001600020600084815260200190815260200160002082815481106117a9576117a8613061565b5b9060005260206000200160009054906101000a900473ffffffffffffffffffffffffffffffffffffffff1690506000805b600688815481106117ee576117ed613061565b5b9060005260206000209060070201600201805490508110156118ba57600c546004600060068b8154811061182557611824613061565b5b9060005260206000209060070201600201848154811061184857611847613061565b5b9060005260206000200154815260200190815260200160002060008573ffffffffffffffffffffffffffffffffffffffff1673ffffffffffffffffffffffffffffffffffffffff16815260200190815260200160002054146118ad57600191506118ba565b80806001019150506117da565b5080156118c8575050611f72565b600a829080600181540180825580915050600190039060005260206000200160009091909190916101000a81548173ffffffffffffffffffffffffffffffffffffffff021916908373ffffffffffffffffffffffffffffffffffffffff160217905550600360008373ffffffffffffffffffffffffffffffffffffffff1673ffffffffffffffffffffffffffffffffffffffff16815260200190815260200160002060000154856119799190613239565b94506006878154811061198f5761198e613061565b5b9060005260206000209060070201600001548510611f6f576001600688815481106119bd576119bc613061565b5b906000526020600020906007020160050160016101000a81548160ff021916908315150217905550600a80549050600688815481106119ff576119fe613061565b5b90600052602060002090600702016006018190555060068781548110611a2857611a27613061565b5b906000526020600020906007020160000154945060005b6001600a80549050611a51919061326d565b811015611d495760036000600a8381548110611a7057611a6f613061565b5b9060005260206000200160009054906101000a900473ffffffffffffffffffffffffffffffffffffffff1673ffffffffffffffffffffffffffffffffffffffff1673ffffffffffffffffffffffffffffffffffffffff1681526020019081526020016000206000015486611ae4919061326d565b955060036000600a8381548110611afe57611afd613061565b5b9060005260206000200160009054906101000a900473ffffffffffffffffffffffffffffffffffffffff1673ffffffffffffffffffffffffffffffffffffffff1673ffffffffffffffffffffffffffffffffffffffff16815260200190815260200160002060000154600460008a81526020019081526020016000206000600a8481548110611b9057611b8f613061565b5b9060005260206000200160009054906101000a900473ffffffffffffffffffffffffffffffffffffffff1673ffffffffffffffffffffffffffffffffffffffff1673ffffffffffffffffffffffffffffffffffffffff1681526020019081526020016000208190555060058881548110611c0d57611c0c613061565b5b90600052602060002001600a8281548110611c2b57611c2a613061565b5b9060005260206000200160009054906101000a900473ffffffffffffffffffffffffffffffffffffffff169080600181540180825580915050600190039060005260206000200160009091909190916101000a81548173ffffffffffffffffffffffffffffffffffffffff021916908373ffffffffffffffffffffffffffffffffffffffff160217905550600060036000600a8481548110611cd057611ccf613061565b5b9060005260206000200160009054906101000a900473ffffffffffffffffffffffffffffffffffffffff1673ffffffffffffffffffffffffffffffffffffffff1673ffffffffffffffffffffffffffffffffffffffff168152602001908152602001600020600001819055508080600101915050611a3f565b508460036000600a6001600a80549050611d63919061326d565b81548110611d7457611d73613061565b5b9060005260206000200160009054906101000a900473ffffffffffffffffffffffffffffffffffffffff1673ffffffffffffffffffffffffffffffffffffffff1673ffffffffffffffffffffffffffffffffffffffff1681526020019081526020016000206000016000828254611deb919061326d565b9250508190555084600460008981526020019081526020016000206000600a6001600a80549050611e1c919061326d565b81548110611e2d57611e2c613061565b5b9060005260206000200160009054906101000a900473ffffffffffffffffffffffffffffffffffffffff1673ffffffffffffffffffffffffffffffffffffffff1673ffffffffffffffffffffffffffffffffffffffff1681526020019081526020016000208190555060058781548110611eaa57611ea9613061565b5b90600052602060002001600a6001600a80549050611ec8919061326d565b81548110611ed957611ed8613061565b5b9060005260206000200160009054906101000a900473ffffffffffffffffffffffffffffffffffffffff169080600181540180825580915050600190039060005260206000200160009091909190916101000a81548173ffffffffffffffffffffffffffffffffffffffff021916908373ffffffffffffffffffffffffffffffffffffffff1602179055505050505050506123f8565b50505b8080600101915050611706565b508080611f8b906133a2565b9150506116fa565b5060008203611fa35750506123f8565b600182611fb0919061326d565b91506116c7565b506123f6565b5b600081106123f557600060068381548110611fdc57611fdb613061565b5b90600052602060002090600702016001015490505b60095481116123d25760005b600260006001858154811061201557612014613061565b5b906000526020600020015481526020019081526020016000206000838152602001908152602001600020805490508110156123be576000600260006001868154811061206457612063613061565b5b90600052602060002001548152602001908152602001600020600084815260200190815260200160002082815481106120a05761209f613061565b5b9060005260206000200160009054906101000a900473ffffffffffffffffffffffffffffffffffffffff1690506000805b600687815481106120e5576120e4613061565b5b9060005260206000209060070201600201805490508110156121b157600c546004600060068a8154811061211c5761211b613061565b5b9060005260206000209060070201600201848154811061213f5761213e613061565b5b9060005260206000200154815260200190815260200160002060008573ffffffffffffffffffffffffffffffffffffffff1673ffffffffffffffffffffffffffffffffffffffff16815260200190815260200160002054146121a457600191506121b1565b80806001019150506120d1565b5080156121bf5750506123b1565b600686815481106121d3576121d2613061565b5b906000526020600020906007020160000154600360008473ffffffffffffffffffffffffffffffffffffffff1673ffffffffffffffffffffffffffffffffffffffff16815260200190815260200160002060000154106123ae576006868154811061224157612240613061565b5b9060005260206000209060070201600001546004600088815260200190815260200160002060008473ffffffffffffffffffffffffffffffffffffffff1673ffffffffffffffffffffffffffffffffffffffff16815260200190815260200160002081905550600686815481106122bb576122ba613061565b5b906000526020600020906007020160000154600360008473ffffffffffffffffffffffffffffffffffffffff1673ffffffffffffffffffffffffffffffffffffffff168152602001908152602001600020600001600082825461231e919061326d565b925050819055506005868154811061233957612338613061565b5b90600052602060002001829080600181540180825580915050600190039060005260206000200160009091909190916101000a81548173ffffffffffffffffffffffffffffffffffffffff021916908373ffffffffffffffffffffffffffffffffffffffff16021790555050505050506123f8565b50505b8080600101915050611ffd565b5080806123ca906133a2565b915050611ff1565b50600081036123e157506123f8565b6001816123ee919061326d565b9050611fbe565b5b505b50565b60008060009050600060018080549050612415919061326d565b90505b60008282612426919061326d565b11156124bc5760006002828461243c9190613239565b6124469190613130565b9050846001828154811061245d5761245c613061565b5b906000526020600020015403612478578093505050506124c2565b846001828154811061248d5761248c613061565b5b906000526020600020015410156124b2576001816124ab9190613239565b92506124b6565b8091505b50612418565b81925050505b919050565b828054828255906000526020600020908101928215612503579160200282015b828111156125025782518255916020019190600101906124e7565b5b50905061251091906125bf565b5090565b82805482825590600052602060002090810192821561258d579160200282015b8281111561258c5782518260006101000a81548173ffffffffffffffffffffffffffffffffffffffff021916908373ffffffffffffffffffffffffffffffffffffffff16021790555091602001919060010190612534565b5b50905061259a91906125bf565b5090565b50805460008255906000526020600020908101906125bc91906125bf565b50565b5b808211156125d85760008160009055506001016125c0565b5090565b600081519050919050565b600082825260208201905092915050565b6000819050602082019050919050565b600081519050919050565b600082825260208201905092915050565b6000819050602082019050919050565b600073ffffffffffffffffffffffffffffffffffffffff82169050919050565b600061265f82612634565b9050919050565b61266f81612654565b82525050565b60006126818383612666565b60208301905092915050565b6000602082019050919050565b60006126a582612608565b6126af8185612613565b93506126ba83612624565b8060005b838110156126eb5781516126d28882612675565b97506126dd8361268d565b9250506001810190506126be565b5085935050505092915050565b6000612704838361269a565b905092915050565b6000602082019050919050565b6000612724826125dc565b61272e81856125e7565b935083602082028501612740856125f8565b8060005b8581101561277c578484038952815161275d85826126f8565b94506127688361270c565b925060208a01995050600181019050612744565b50829750879550505050505092915050565b600060208201905081810360008301526127a88184612719565b905092915050565b600080fd5b600080fd5b6000819050919050565b6127cd816127ba565b81146127d857600080fd5b50565b6000813590506127ea816127c4565b92915050565b6127f981612654565b811461280457600080fd5b50565b600081359050612816816127f0565b92915050565b60008060408385031215612833576128326127b0565b5b6000612841858286016127db565b925050602061285285828601612807565b9150509250929050565b600081519050919050565b600082825260208201905092915050565b6000819050602082019050919050565b612891816127ba565b82525050565b600081519050919050565b600082825260208201905092915050565b6000819050602082019050919050565b60006128cf8383612888565b60208301905092915050565b6000602082019050919050565b60006128f382612897565b6128fd81856128a2565b9350612908836128b3565b8060005b8381101561293957815161292088826128c3565b975061292b836128db565b92505060018101905061290c565b5085935050505092915050565b60008115159050919050565b61295b81612946565b82525050565b60006101008301600083015161297a6000860182612888565b50602083015161298d6020860182612888565b50604083015184820360408601526129a582826128e8565b91505060608301516129ba6060860182612888565b5060808301516129cd6080860182612888565b5060a08301516129e060a0860182612952565b5060c08301516129f360c0860182612952565b5060e0830151612a0660e0860182612888565b508091505092915050565b6000612a1d8383612961565b905092915050565b6000602082019050919050565b6000612a3d8261285c565b612a478185612867565b935083602082028501612a5985612878565b8060005b85811015612a955784840389528151612a768582612a11565b9450612a8183612a25565b925060208a01995050600181019050612a5d565b50829750879550505050505092915050565b60006020820190508181036000830152612ac18184612a32565b905092915050565b612ad2816127ba565b82525050565b6000602082019050612aed6000830184612ac9565b92915050565b600060208284031215612b0957612b086127b0565b5b6000612b1784828501612807565b91505092915050565b612b2981612654565b82525050565b612b3881612946565b82525050565b600060a082019050612b536000830188612ac9565b612b606020830187612ac9565b612b6d6040830186612ac9565b612b7a6060830185612b20565b612b876080830184612b2f565b9695505050505050565b600060208284031215612ba757612ba66127b0565b5b6000612bb5848285016127db565b91505092915050565b6000602082019050612bd36000830184612b2f565b92915050565b600081519050919050565b600082825260208201905092915050565b6000819050602082019050919050565b6000612c118383612952565b60208301905092915050565b6000602082019050919050565b6000612c3582612bd9565b612c3f8185612be4565b9350612c4a83612bf5565b8060005b83811015612c7b578151612c628882612c05565b9750612c6d83612c1d565b925050600181019050612c4e565b5085935050505092915050565b60006020820190508181036000830152612ca28184612c2a565b905092915050565b60008060008060808587031215612cc457612cc36127b0565b5b6000612cd2878288016127db565b9450506020612ce3878288016127db565b9350506040612cf4878288016127db565b9250506060612d0587828801612807565b91505092959194509250565b600060e082019050612d26600083018a612ac9565b612d336020830189612ac9565b612d406040830188612ac9565b612d4d6060830187612ac9565b612d5a6080830186612b2f565b612d6760a0830185612b2f565b612d7460c0830184612ac9565b98975050505050505050565b600080fd5b600080fd5b600080fd5b60008083601f840112612da557612da4612d80565b5b8235905067ffffffffffffffff811115612dc257612dc1612d85565b5b602083019150836020820283011115612dde57612ddd612d8a565b5b9250929050565b612dee81612946565b8114612df957600080fd5b50565b600081359050612e0b81612de5565b92915050565b600080600080600080600060c0888a031215612e3057612e2f6127b0565b5b6000612e3e8a828b016127db565b9750506020612e4f8a828b016127db565b965050604088013567ffffffffffffffff811115612e7057612e6f6127b5565b5b612e7c8a828b01612d8f565b95509550506060612e8f8a828b016127db565b9350506080612ea08a828b016127db565b92505060a0612eb18a828b01612dfc565b91505092959891949750929550565b600082825260208201905092915050565b7f4f6e6c792061646d696e2063616e20706572666f726d2074686973206163746960008201527f6f6e2e0000000000000000000000000000000000000000000000000000000000602082015250565b6000612f2d602383612ec0565b9150612f3882612ed1565b604082019050919050565b60006020820190508181036000830152612f5c81612f20565b9050919050565b7f54686973207461736b206973206e6f7420616c6c6f6361746564207965742e00600082015250565b6000612f99601f83612ec0565b9150612fa482612f63565b602082019050919050565b60006020820190508181036000830152612fc881612f8c565b9050919050565b7f54686973207461736b20697320616c726561647920636f6d706c65746564206260008201527f7920776f726b65722e0000000000000000000000000000000000000000000000602082015250565b600061302b602983612ec0565b915061303682612fcf565b604082019050919050565b6000602082019050818103600083015261305a8161301e565b9050919050565b7f4e487b7100000000000000000000000000000000000000000000000000000000600052603260045260246000fd5b7f4e487b7100000000000000000000000000000000000000000000000000000000600052601160045260246000fd5b60006130ca826127ba565b91506130d5836127ba565b92508282026130e3816127ba565b915082820484148315176130fa576130f9613090565b5b5092915050565b7f4e487b7100000000000000000000000000000000000000000000000000000000600052601260045260246000fd5b600061313b826127ba565b9150613146836127ba565b92508261315657613155613101565b5b828204905092915050565b7f696e73756666696369656e742066756e64730000000000000000000000000000600082015250565b6000613197601283612ec0565b91506131a282613161565b602082019050919050565b600060208201905081810360008301526131c68161318a565b9050919050565b7f7461736b20686173206578706972656400000000000000000000000000000000600082015250565b6000613203601083612ec0565b915061320e826131cd565b602082019050919050565b60006020820190508181036000830152613232816131f6565b9050919050565b6000613244826127ba565b915061324f836127ba565b925082820190508082111561326757613266613090565b5b92915050565b6000613278826127ba565b9150613283836127ba565b925082820390508181111561329b5761329a613090565b5b92915050565b7f576f726b657220616c726561647920726567697374657265642e000000000000600082015250565b60006132d7601a83612ec0565b91506132e2826132a1565b602082019050919050565b60006020820190508181036000830152613306816132ca565b9050919050565b6000613318826127ba565b91506000820361332b5761332a613090565b5b600182039050919050565b7f696e76616c696420696e70757400000000000000000000000000000000000000600082015250565b600061336c600d83612ec0565b915061337782613336565b602082019050919050565b6000602082019050818103600083015261339b8161335f565b9050919050565b60006133ad826127ba565b91507fffffffffffffffffffffffffffffffffffffffffffffffffffffffffffffffff82036133df576133de613090565b5b60018201905091905056fea26469706673582212202a012f2acf124f5f98c7b670ae1e87e3a93da2b3e680eb138f4e90b487d8234364736f6c634300081a0033",
  "linkReferences": {},
  "deployedLinkReferences": {}
}